{
  "_format": "hh-sol-artifact-1",
  "contractName": "PaymentSplitter",
  "sourceName": "contracts/PaymentSplitter.sol",
  "abi": [
    {
      "inputs": [
        {
          "internalType": "address payable[]",
          "name": "_recipients",
          "type": "address[]"
        },
        {
          "internalType": "uint256[]",
          "name": "_shares",
          "type": "uint256[]"
        }
      ],
      "name": "splitPayment",
      "outputs": [],
      "stateMutability": "payable",
      "type": "function"
    }
  ],
  "bytecode": "0x608060405234801561001057600080fd5b506109f1806100206000396000f3fe60806040526004361061001e5760003560e01c80638eab0f1514610023575b600080fd5b61003d60048036038101906100389190610416565b61003f565b005b6000825111610083576040517f08c379a000000000000000000000000000000000000000000000000000000000815260040161007a9061056e565b60405180910390fd5b60008151116100c7576040517f08c379a00000000000000000000000000000000000000000000000000000000081526004016100be9061052e565b60405180910390fd5b805182511461010b576040517f08c379a00000000000000000000000000000000000000000000000000000000081526004016101029061050e565b60405180910390fd5b6000805b825181101561017957828181518110610151577f4e487b7100000000000000000000000000000000000000000000000000000000600052603260045260246000fd5b602002602001015182610164919061061c565b915080806101719061076a565b91505061010f565b50606481146101bd576040517f08c379a00000000000000000000000000000000000000000000000000000000081526004016101b49061054e565b60405180910390fd5b60005b83518110156102ba57838181518110610202577f4e487b7100000000000000000000000000000000000000000000000000000000600052603260045260246000fd5b602002602001015173ffffffffffffffffffffffffffffffffffffffff166108fc606485848151811061025e577f4e487b7100000000000000000000000000000000000000000000000000000000600052603260045260246000fd5b60200260200101513461027191906106a3565b61027b9190610672565b9081150290604051600060405180830381858888f193505050501580156102a6573d6000803e3d6000fd5b5080806102b29061076a565b9150506101c0565b50505050565b60006102d36102ce846105b3565b61058e565b905080838252602082019050828560208602820111156102f257600080fd5b60005b8581101561032257816103088882610398565b8452602084019350602083019250506001810190506102f5565b5050509392505050565b600061033f61033a846105df565b61058e565b9050808382526020820190508285602086028201111561035e57600080fd5b60005b8581101561038e57816103748882610401565b845260208401935060208301925050600181019050610361565b5050509392505050565b6000813590506103a78161098d565b92915050565b600082601f8301126103be57600080fd5b81356103ce8482602086016102c0565b91505092915050565b600082601f8301126103e857600080fd5b81356103f884826020860161032c565b91505092915050565b600081359050610410816109a4565b92915050565b6000806040838503121561042957600080fd5b600083013567ffffffffffffffff81111561044357600080fd5b61044f858286016103ad565b925050602083013567ffffffffffffffff81111561046c57600080fd5b610478858286016103d7565b9150509250929050565b600061048f602f8361060b565b915061049a82610851565b604082019050919050565b60006104b2602b8361060b565b91506104bd826108a0565b604082019050919050565b60006104d560298361060b565b91506104e0826108ef565b604082019050919050565b60006104f8602f8361060b565b91506105038261093e565b604082019050919050565b6000602082019050818103600083015261052781610482565b9050919050565b60006020820190508181036000830152610547816104a5565b9050919050565b60006020820190508181036000830152610567816104c8565b9050919050565b60006020820190508181036000830152610587816104eb565b9050919050565b60006105986105a9565b90506105a48282610739565b919050565b6000604051905090565b600067ffffffffffffffff8211156105ce576105cd610811565b5b602082029050602081019050919050565b600067ffffffffffffffff8211156105fa576105f9610811565b5b602082029050602081019050919050565b600082825260208201905092915050565b60006106278261072f565b91506106328361072f565b9250827fffffffffffffffffffffffffffffffffffffffffffffffffffffffffffffffff03821115610667576106666107b3565b5b828201905092915050565b600061067d8261072f565b91506106888361072f565b925082610698576106976107e2565b5b828204905092915050565b60006106ae8261072f565b91506106b98361072f565b9250817fffffffffffffffffffffffffffffffffffffffffffffffffffffffffffffffff04831182151516156106f2576106f16107b3565b5b828202905092915050565b60006107088261070f565b9050919050565b600073ffffffffffffffffffffffffffffffffffffffff82169050919050565b6000819050919050565b61074282610840565b810181811067ffffffffffffffff8211171561076157610760610811565b5b80604052505050565b60006107758261072f565b91507fffffffffffffffffffffffffffffffffffffffffffffffffffffffffffffffff8214156107a8576107a76107b3565b5b600182019050919050565b7f4e487b7100000000000000000000000000000000000000000000000000000000600052601160045260246000fd5b7f4e487b7100000000000000000000000000000000000000000000000000000000600052601260045260246000fd5b7f4e487b7100000000000000000000000000000000000000000000000000000000600052604160045260246000fd5b6000601f19601f8301169050919050565b7f746865206e756d626572206f6620726563697069656e7473202620736861726560008201527f73206d75737420626520657175616c0000000000000000000000000000000000602082015250565b7f746865206e756d626572206f6620736861726573206d7573742062652067726560008201527f61746572207468616e2030000000000000000000000000000000000000000000602082015250565b7f73756d206f6620736861726573206973206e6f7420657175616c20746f20313060008201527f302070657263656e740000000000000000000000000000000000000000000000602082015250565b7f746865206e756d626572206f6620726563697069656e7473206d75737420626560008201527f2067726561746572207468616e20300000000000000000000000000000000000602082015250565b610996816106fd565b81146109a157600080fd5b50565b6109ad8161072f565b81146109b857600080fd5b5056fea2646970667358221220f36db6a5827968417835a4f52b9a9c0a16262ec88ac70f46c670fe9fd634c4f664736f6c63430008040033",
  "linkReferences": {},
  "deployedLinkReferences": {}
}